:020000040000FA
:04000000803114280F
:100008007E1480314E01161E0A280B2812280C1E59
:100018000E280F2812288031702080317E100900A8
:10002800803116287E1040018031792840019801DE
:1000380099019A013B309200F0309300FF30940010
:10004800FB307E01CE00F030C3003330B800C4016D
:10005800B9010430CF00BA01C501D0013730BB0067
:10006800F030C600FF30D1003F30BC00F030C70090
:10007800FF30D2005511541553155930F200003095
:10008800F3008031812080314E0116160800700877
:100098007104031950285128562871088A007008DD
:1000A8000A0080317E015511080003104001181D17
:1000B80003140318602863284001181565284001B7
:1000C8001811080080311A20803180318620803153
:1000D80080318B20803108007E01551D74287528D9
:1000E800782880314B2080310800803166208031AB
:1000F8008B170B177E28803114287308F1007208BB
:10010800F00008005101910193019201080050018B
:040118008C0108004E
:020000040001F9
:04000E00ED3FE73F9C
:04001400FF3FFF3F6C
:00000001FF
