:020000040000FA
:0400000080310E2815
:100008007E1480314E01161A0C1E0C288031662091
:100018007E100900803110287E1040018031602850
:10002800980199019A013B309200F0309300FF301B
:100038009400FB307E01CE00F030C3003330B800AE
:10004800C4010430B9000430CF00BA01C501D001A1
:100058003730BB00F030C600FF30D1003F30BC0065
:10006800F030C700FF30D2005511541553155930E0
:10007800F2000030F30080316C204E0116160800A3
:100088007008710403194D2871088A0070080A0065
:1000980080317E0155110800803114208031803173
:1000A800712080318031762008004001121D5E28C1
:1000B80012110800121508008031502080318B176A
:1000C8000B1765287E01551D080080314420080063
:1000D8007308F1007208F0000800510191019301C2
:0A00E8009201080050018C0108008D
:020000040001F9
:04000E00ED3FE73F9C
:04001400FF3FFF3F6C
:00000001FF
