:020000040000FA
:04000000803114280F
:100008007E1480314E01161E0A280B2812280C1E59
:100018000E280F2812288031642080317E100900B4
:10002800803116287E1040018031762840019801E1
:1000380099019A013B309200F0309300FF30940010
:10004800FB307E01CE00F030C3003330B800C4016D
:100058000430B9000430CF00BA01C501D0013730EF
:10006800BB00F030C600FF30D1003F30BC00F0309C
:10007800C700FF30D2005511541553156D30F200EA
:100088000030F30080317E2080314E0116160800C2
:1000980070087104031951285228572871088A00DA
:1000A80070080A0080317E015511080080311A203D
:1000B8008031803183208031803188208031080070
:1000C8007E01551D682869286C2880314C208031B4
:1000D80008004001121D7128722874281211752811
:1000E8001215080080315A2080318B170B177B2896
:1000F800803114287308F1007208F00008005101DB
:0E010800910193019201080050018C01080042
:020000040001F9
:04000E00ED3FE73F9C
:04001400FF3FFF3F6C
:00000001FF
