:020000040000FA
:08000000803102288731FB2F3B
:100F4A007508F1007408F0000800203051018E0085
:100F5A00910193019001920108008731C4278731DA
:100F6A008B170B17B72F803102284E010C10003057
:100F7A00F4000030F5008731A52787310800873152
:100F8A00BA2787318731AA2787318731CE27873118
:100F9A00080004304001980099019A013B30920000
:100FAA00F0309300FF3094007E01B801C301CE01F6
:100FBA00B901C401CF01BA01C501D0013730BB0064
:100FCA00F030C600FF30D1003F30BC00F030C7001F
:100FDA00FF30D200BD01BE01BF01C801C901CA016B
:100FEA000430D3000430D400D5010800F201F30123
:060FFA0040018731B22F17
:020000040001F9
:04000E00ED3FE73F9C
:04001400FF3FFF3F6C
:00000001FF
