:020000040000FA
:04000000803118280B
:100008007E1480310B1F09280A2816284E01161E57
:100018000E280F2816280C1E12281328162880319F
:10002800762080317E10090080311A287E10400128
:100038008031882804304001980099019A013B30AA
:100048009200F0309300FF3094007E01B801C301A4
:10005800CE01B901C401CF01BA01C501D0013730C1
:10006800BB00F030C600FF30D1003F30BC00F0309C
:10007800C700FF30D200BD01BE01BF01C801C901E0
:10008800CA010430D3000430D400D5017F30F40015
:100098000030F5008031982080314E011616080096
:1000A80072087304031959285A285F2873088A00AC
:1000B80072080A0080317E015511080080316C20D9
:1000C800803180319020803180311E2080310800BD
:1000D8004E010C100030F4000030F50080319D20F6
:1000E800803108007E01551D7A287B287E288031C2
:1000F8005420803108004001121D83288428862856
:1001080012118728121508008031622080318B1760
:100118000B178D2880311828203051018E0091014D
:1001280093019001920108007508F3007408F20029
:0C01380008007508F1007408F0000800D1
:020000040001F9
:04000E00ED3FE73F9C
:04001400FF3FFF3F6C
:00000001FF
